{
  "_format": "hh-sol-artifact-1",
  "contractName": "SimpleMarketplace",
  "sourceName": "contracts/MarketPlace.sol",
  "abi": [
    {
      "inputs": [],
      "stateMutability": "nonpayable",
      "type": "constructor"
    },
    {
      "anonymous": false,
      "inputs": [
        {
          "indexed": true,
          "internalType": "uint256",
          "name": "itemId",
          "type": "uint256"
        },
        {
          "indexed": false,
          "internalType": "string",
          "name": "name",
          "type": "string"
        },
        {
          "indexed": false,
          "internalType": "uint256",
          "name": "price",
          "type": "uint256"
        },
        {
          "indexed": false,
          "internalType": "address",
          "name": "seller",
          "type": "address"
        }
      ],
      "name": "ItemListed",
      "type": "event"
    },
    {
      "anonymous": false,
      "inputs": [
        {
          "indexed": true,
          "internalType": "uint256",
          "name": "itemId",
          "type": "uint256"
        },
        {
          "indexed": false,
          "internalType": "address",
          "name": "buyer",
          "type": "address"
        },
        {
          "indexed": false,
          "internalType": "uint256",
          "name": "price",
          "type": "uint256"
        }
      ],
      "name": "ItemPurchased",
      "type": "event"
    },
    {
      "inputs": [],
      "name": "admin",
      "outputs": [
        {
          "internalType": "address",
          "name": "",
          "type": "address"
        }
      ],
      "stateMutability": "view",
      "type": "function"
    },
    {
      "inputs": [
        {
          "internalType": "uint256",
          "name": "_itemId",
          "type": "uint256"
        }
      ],
      "name": "getItem",
      "outputs": [
        {
          "internalType": "string",
          "name": "",
          "type": "string"
        },
        {
          "internalType": "uint256",
          "name": "",
          "type": "uint256"
        },
        {
          "internalType": "address",
          "name": "",
          "type": "address"
        },
        {
          "internalType": "enum SimpleMarketplace.ItemStatus",
          "name": "",
          "type": "uint8"
        }
      ],
      "stateMutability": "view",
      "type": "function"
    },
    {
      "inputs": [
        {
          "internalType": "string",
          "name": "_name",
          "type": "string"
        },
        {
          "internalType": "uint256",
          "name": "_price",
          "type": "uint256"
        }
      ],
      "name": "listItem",
      "outputs": [],
      "stateMutability": "nonpayable",
      "type": "function"
    },
    {
      "inputs": [
        {
          "internalType": "uint256",
          "name": "",
          "type": "uint256"
        }
      ],
      "name": "listings",
      "outputs": [
        {
          "internalType": "string",
          "name": "name",
          "type": "string"
        },
        {
          "internalType": "uint256",
          "name": "price",
          "type": "uint256"
        },
        {
          "internalType": "address payable",
          "name": "seller",
          "type": "address"
        },
        {
          "internalType": "enum SimpleMarketplace.ItemStatus",
          "name": "status",
          "type": "uint8"
        }
      ],
      "stateMutability": "view",
      "type": "function"
    },
    {
      "inputs": [
        {
          "internalType": "uint256",
          "name": "_itemId",
          "type": "uint256"
        }
      ],
      "name": "purchaseItem",
      "outputs": [],
      "stateMutability": "payable",
      "type": "function"
    }
  ],
  "bytecode": "0x6080604052348015600f57600080fd5b50336000806101000a81548173ffffffffffffffffffffffffffffffffffffffff021916908373ffffffffffffffffffffffffffffffffffffffff1602179055506111bc8061005f6000396000f3fe60806040526004361061004a5760003560e01c80633129e7731461004f5780638511c9371461008f578063d38ea5bf146100b8578063de74e57b146100d4578063f851a44014610114575b600080fd5b34801561005b57600080fd5b5061007660048036038101906100719190610816565b61013f565b604051610086949392919061099a565b60405180910390f35b34801561009b57600080fd5b506100b660048036038101906100b19190610b1b565b61030f565b005b6100d260048036038101906100cd9190610816565b6104af565b005b3480156100e057600080fd5b506100fb60048036038101906100f69190610816565b6106b3565b60405161010b9493929190610b98565b60405180910390f35b34801561012057600080fd5b506101296107a8565b6040516101369190610be4565b60405180910390f35b60606000806000600180549050851061018d576040517f08c379a000000000000000000000000000000000000000000000000000000000815260040161018490610c4b565b60405180910390fd5b6000600186815481106101a3576101a2610c6b565b5b90600052602060002090600302016040518060800160405290816000820180546101cc90610cc9565b80601f01602080910402602001604051908101604052809291908181526020018280546101f890610cc9565b80156102455780601f1061021a57610100808354040283529160200191610245565b820191906000526020600020905b81548152906001019060200180831161022857829003601f168201915b50505050508152602001600182015481526020016002820160009054906101000a900473ffffffffffffffffffffffffffffffffffffffff1673ffffffffffffffffffffffffffffffffffffffff1673ffffffffffffffffffffffffffffffffffffffff1681526020016002820160149054906101000a900460ff1660048111156102d3576102d2610923565b5b60048111156102e5576102e4610923565b5b81525050905080600001518160200151826040015183606001519450945094509450509193509193565b60008111610352576040517f08c379a000000000000000000000000000000000000000000000000000000000815260040161034990610d46565b60405180910390fd5b600160405180608001604052808481526020018381526020013373ffffffffffffffffffffffffffffffffffffffff16815260200160048081111561039a57610399610923565b5b815250908060018154018082558091505060019003906000526020600020906003020160009091909190915060008201518160000190816103db9190610f12565b506020820151816001015560408201518160020160006101000a81548173ffffffffffffffffffffffffffffffffffffffff021916908373ffffffffffffffffffffffffffffffffffffffff16021790555060608201518160020160146101000a81548160ff0219169083600481111561045857610457610923565b5b02179055505050600180805490506104709190611013565b7f16244e47af8a7d2c923faa2cab44315c0514c7aa830682bbb9cc8f0d37ad75488383336040516104a393929190611047565b60405180910390a25050565b60018054905081106104f6576040517f08c379a00000000000000000000000000000000000000000000000000000000081526004016104ed90610c4b565b60405180910390fd5b60006001828154811061050c5761050b610c6b565b5b9060005260206000209060030201905060048081111561052f5761052e610923565b5b8160020160149054906101000a900460ff16600481111561055357610552610923565b5b14610593576040517f08c379a000000000000000000000000000000000000000000000000000000000815260040161058a906110d1565b60405180910390fd5b806001015434146105d9576040517f08c379a00000000000000000000000000000000000000000000000000000000081526004016105d09061113d565b60405180910390fd5b60038160020160146101000a81548160ff0219169083600481111561060157610600610923565b5b02179055508060020160009054906101000a900473ffffffffffffffffffffffffffffffffffffffff1673ffffffffffffffffffffffffffffffffffffffff166108fc349081150290604051600060405180830381858888f19350505050158015610670573d6000803e3d6000fd5b50817f78a0660bbda86d17037943644187f6f1f73f2f20a3240bf4cf4a56c2a96bcf843383600101546040516106a792919061115d565b60405180910390a25050565b600181815481106106c357600080fd5b90600052602060002090600302016000915090508060000180546106e690610cc9565b80601f016020809104026020016040519081016040528092919081815260200182805461071290610cc9565b801561075f5780601f106107345761010080835404028352916020019161075f565b820191906000526020600020905b81548152906001019060200180831161074257829003601f168201915b5050505050908060010154908060020160009054906101000a900473ffffffffffffffffffffffffffffffffffffffff16908060020160149054906101000a900460ff16905084565b60008054906101000a900473ffffffffffffffffffffffffffffffffffffffff1681565b6000604051905090565b600080fd5b600080fd5b6000819050919050565b6107f3816107e0565b81146107fe57600080fd5b50565b600081359050610810816107ea565b92915050565b60006020828403121561082c5761082b6107d6565b5b600061083a84828501610801565b91505092915050565b600081519050919050565b600082825260208201905092915050565b60005b8381101561087d578082015181840152602081019050610862565b60008484015250505050565b6000601f19601f8301169050919050565b60006108a582610843565b6108af818561084e565b93506108bf81856020860161085f565b6108c881610889565b840191505092915050565b6108dc816107e0565b82525050565b600073ffffffffffffffffffffffffffffffffffffffff82169050919050565b600061090d826108e2565b9050919050565b61091d81610902565b82525050565b7f4e487b7100000000000000000000000000000000000000000000000000000000600052602160045260246000fd5b6005811061096357610962610923565b5b50565b600081905061097482610952565b919050565b600061098482610966565b9050919050565b61099481610979565b82525050565b600060808201905081810360008301526109b4818761089a565b90506109c360208301866108d3565b6109d06040830185610914565b6109dd606083018461098b565b95945050505050565b600080fd5b600080fd5b7f4e487b7100000000000000000000000000000000000000000000000000000000600052604160045260246000fd5b610a2882610889565b810181811067ffffffffffffffff82111715610a4757610a466109f0565b5b80604052505050565b6000610a5a6107cc565b9050610a668282610a1f565b919050565b600067ffffffffffffffff821115610a8657610a856109f0565b5b610a8f82610889565b9050602081019050919050565b82818337600083830152505050565b6000610abe610ab984610a6b565b610a50565b905082815260208101848484011115610ada57610ad96109eb565b5b610ae5848285610a9c565b509392505050565b600082601f830112610b0257610b016109e6565b5b8135610b12848260208601610aab565b91505092915050565b60008060408385031215610b3257610b316107d6565b5b600083013567ffffffffffffffff811115610b5057610b4f6107db565b5b610b5c85828601610aed565b9250506020610b6d85828601610801565b9150509250929050565b6000610b82826108e2565b9050919050565b610b9281610b77565b82525050565b60006080820190508181036000830152610bb2818761089a565b9050610bc160208301866108d3565b610bce6040830185610b89565b610bdb606083018461098b565b95945050505050565b6000602082019050610bf96000830184610914565b92915050565b7f4974656d20646f6573206e6f7420657869737400000000000000000000000000600082015250565b6000610c3560138361084e565b9150610c4082610bff565b602082019050919050565b60006020820190508181036000830152610c6481610c28565b9050919050565b7f4e487b7100000000000000000000000000000000000000000000000000000000600052603260045260246000fd5b7f4e487b7100000000000000000000000000000000000000000000000000000000600052602260045260246000fd5b60006002820490506001821680610ce157607f821691505b602082108103610cf457610cf3610c9a565b5b50919050565b7f5072696365206d7573742062652067726561746572207468616e207a65726f00600082015250565b6000610d30601f8361084e565b9150610d3b82610cfa565b602082019050919050565b60006020820190508181036000830152610d5f81610d23565b9050919050565b60008190508160005260206000209050919050565b60006020601f8301049050919050565b600082821b905092915050565b600060088302610dc87fffffffffffffffffffffffffffffffffffffffffffffffffffffffffffffffff82610d8b565b610dd28683610d8b565b95508019841693508086168417925050509392505050565b6000819050919050565b6000610e0f610e0a610e05846107e0565b610dea565b6107e0565b9050919050565b6000819050919050565b610e2983610df4565b610e3d610e3582610e16565b848454610d98565b825550505050565b600090565b610e52610e45565b610e5d818484610e20565b505050565b5b81811015610e8157610e76600082610e4a565b600181019050610e63565b5050565b601f821115610ec657610e9781610d66565b610ea084610d7b565b81016020851015610eaf578190505b610ec3610ebb85610d7b565b830182610e62565b50505b505050565b600082821c905092915050565b6000610ee960001984600802610ecb565b1980831691505092915050565b6000610f028383610ed8565b9150826002028217905092915050565b610f1b82610843565b67ffffffffffffffff811115610f3457610f336109f0565b5b610f3e8254610cc9565b610f49828285610e85565b600060209050601f831160018114610f7c5760008415610f6a578287015190505b610f748582610ef6565b865550610fdc565b601f198416610f8a86610d66565b60005b82811015610fb257848901518255600182019150602085019450602081019050610f8d565b86831015610fcf5784890151610fcb601f891682610ed8565b8355505b6001600288020188555050505b505050505050565b7f4e487b7100000000000000000000000000000000000000000000000000000000600052601160045260246000fd5b600061101e826107e0565b9150611029836107e0565b925082820390508181111561104157611040610fe4565b5b92915050565b60006060820190508181036000830152611061818661089a565b905061107060208301856108d3565b61107d6040830184610914565b949350505050565b7f4974656d20697320616c726561647920736f6c64000000000000000000000000600082015250565b60006110bb60148361084e565b91506110c682611085565b602082019050919050565b600060208201905081810360008301526110ea816110ae565b9050919050565b7f496e636f727265637420616d6f756e742073656e740000000000000000000000600082015250565b600061112760158361084e565b9150611132826110f1565b602082019050919050565b600060208201905081810360008301526111568161111a565b9050919050565b60006040820190506111726000830185610914565b61117f60208301846108d3565b939250505056fea26469706673582212200c54dd7914f23c41175d041484ded38fb4b367c1448180de643d3d8b2adbf1a264736f6c634300081b0033",
  "linkReferences": {},
  "deployedLinkReferences": {}
}